{
  "_format": "hh-sol-artifact-1",
  "contractName": "NFTMarket",
  "sourceName": "contracts/NFTMarket.sol",
  "abi": [
    {
      "inputs": [],
      "stateMutability": "nonpayable",
      "type": "constructor"
    },
    {
      "anonymous": false,
      "inputs": [
        {
          "indexed": true,
          "internalType": "uint256",
          "name": "itemId",
          "type": "uint256"
        },
        {
          "indexed": true,
          "internalType": "address",
          "name": "nftContract",
          "type": "address"
        },
        {
          "indexed": true,
          "internalType": "uint256",
          "name": "tokenId",
          "type": "uint256"
        },
        {
          "indexed": false,
          "internalType": "address",
          "name": "seller",
          "type": "address"
        },
        {
          "indexed": false,
          "internalType": "address",
          "name": "owner",
          "type": "address"
        },
        {
          "indexed": false,
          "internalType": "uint256",
          "name": "price",
          "type": "uint256"
        },
        {
          "indexed": false,
          "internalType": "bool",
          "name": "sold",
          "type": "bool"
        }
      ],
      "name": "MarketItemCreated",
      "type": "event"
    },
    {
      "anonymous": false,
      "inputs": [
        {
          "indexed": true,
          "internalType": "uint256",
          "name": "itemId",
          "type": "uint256"
        },
        {
          "indexed": true,
          "internalType": "address",
          "name": "nftContract",
          "type": "address"
        },
        {
          "indexed": true,
          "internalType": "uint256",
          "name": "tokenId",
          "type": "uint256"
        },
        {
          "indexed": false,
          "internalType": "address",
          "name": "buyer",
          "type": "address"
        },
        {
          "indexed": false,
          "internalType": "uint256",
          "name": "price",
          "type": "uint256"
        }
      ],
      "name": "MarketItemSold",
      "type": "event"
    },
    {
      "inputs": [
        {
          "internalType": "address",
          "name": "nftContract",
          "type": "address"
        },
        {
          "internalType": "uint256",
          "name": "tokenId",
          "type": "uint256"
        },
        {
          "internalType": "uint256",
          "name": "price",
          "type": "uint256"
        }
      ],
      "name": "createMarketItem",
      "outputs": [],
      "stateMutability": "payable",
      "type": "function"
    },
    {
      "inputs": [
        {
          "internalType": "address",
          "name": "nftContract",
          "type": "address"
        },
        {
          "internalType": "uint256",
          "name": "itemId",
          "type": "uint256"
        }
      ],
      "name": "createMarketSale",
      "outputs": [],
      "stateMutability": "payable",
      "type": "function"
    },
    {
      "inputs": [],
      "name": "fetchMarketItems",
      "outputs": [
        {
          "components": [
            {
              "internalType": "uint256",
              "name": "itemId",
              "type": "uint256"
            },
            {
              "internalType": "address",
              "name": "nftContract",
              "type": "address"
            },
            {
              "internalType": "uint256",
              "name": "tokenId",
              "type": "uint256"
            },
            {
              "internalType": "address payable",
              "name": "seller",
              "type": "address"
            },
            {
              "internalType": "address payable",
              "name": "owner",
              "type": "address"
            },
            {
              "internalType": "uint256",
              "name": "price",
              "type": "uint256"
            },
            {
              "internalType": "bool",
              "name": "sold",
              "type": "bool"
            }
          ],
          "internalType": "struct NFTMarket.MarketItem[]",
          "name": "",
          "type": "tuple[]"
        }
      ],
      "stateMutability": "view",
      "type": "function"
    },
    {
      "inputs": [],
      "name": "fetchMyOwnedItems",
      "outputs": [
        {
          "components": [
            {
              "internalType": "uint256",
              "name": "itemId",
              "type": "uint256"
            },
            {
              "internalType": "address",
              "name": "nftContract",
              "type": "address"
            },
            {
              "internalType": "uint256",
              "name": "tokenId",
              "type": "uint256"
            },
            {
              "internalType": "address payable",
              "name": "seller",
              "type": "address"
            },
            {
              "internalType": "address payable",
              "name": "owner",
              "type": "address"
            },
            {
              "internalType": "uint256",
              "name": "price",
              "type": "uint256"
            },
            {
              "internalType": "bool",
              "name": "sold",
              "type": "bool"
            }
          ],
          "internalType": "struct NFTMarket.MarketItem[]",
          "name": "",
          "type": "tuple[]"
        }
      ],
      "stateMutability": "view",
      "type": "function"
    },
    {
      "inputs": [],
      "name": "fetchMySellingItems",
      "outputs": [
        {
          "components": [
            {
              "internalType": "uint256",
              "name": "itemId",
              "type": "uint256"
            },
            {
              "internalType": "address",
              "name": "nftContract",
              "type": "address"
            },
            {
              "internalType": "uint256",
              "name": "tokenId",
              "type": "uint256"
            },
            {
              "internalType": "address payable",
              "name": "seller",
              "type": "address"
            },
            {
              "internalType": "address payable",
              "name": "owner",
              "type": "address"
            },
            {
              "internalType": "uint256",
              "name": "price",
              "type": "uint256"
            },
            {
              "internalType": "bool",
              "name": "sold",
              "type": "bool"
            }
          ],
          "internalType": "struct NFTMarket.MarketItem[]",
          "name": "",
          "type": "tuple[]"
        }
      ],
      "stateMutability": "view",
      "type": "function"
    },
    {
      "inputs": [],
      "name": "getListingPrice",
      "outputs": [
        {
          "internalType": "uint256",
          "name": "",
          "type": "uint256"
        }
      ],
      "stateMutability": "view",
      "type": "function"
    }
  ],
  "bytecode": "0x60806040526703782dace9d9000060045534801561001c57600080fd5b50600160008190555033600360006101000a81548173ffffffffffffffffffffffffffffffffffffffff021916908373ffffffffffffffffffffffffffffffffffffffff16021790555061172a806100756000396000f3fe6080604052600436106100555760003560e01c80630f08efe01461005a57806312e85585146100855780633146f3ff146100b057806358eb2df5146100db578063c23b139e146100f7578063df49d5f014610113575b600080fd5b34801561006657600080fd5b5061006f61013e565b60405161007c91906113a3565b60405180910390f35b34801561009157600080fd5b5061009a61014f565b6040516100a79190611445565b60405180910390f35b3480156100bc57600080fd5b506100c5610159565b6040516100d291906113a3565b60405180910390f35b6100f560048036038101906100f091906110b6565b61016a565b005b610111600480360381019061010c919061107a565b6104ce565b005b34801561011f57600080fd5b506101286107d9565b60405161013591906113a3565b60405180910390f35b606061014a60026107ea565b905090565b6000600454905090565b606061016560016107ea565b905090565b600260005414156101b0576040517f08c379a00000000000000000000000000000000000000000000000000000000081526004016101a790611425565b60405180910390fd5b6002600081905550600081116101fb576040517f08c379a00000000000000000000000000000000000000000000000000000000081526004016101f2906113e5565b60405180910390fd5b600454341461023f576040517f08c379a0000000000000000000000000000000000000000000000000000000008152600401610236906113c5565b60405180910390fd5b6102496001610fab565b60006102556001610fc1565b90506040518060e001604052808281526020018573ffffffffffffffffffffffffffffffffffffffff1681526020018481526020013373ffffffffffffffffffffffffffffffffffffffff168152602001600073ffffffffffffffffffffffffffffffffffffffff16815260200183815260200160001515815250600560008381526020019081526020016000206000820151816000015560208201518160010160006101000a81548173ffffffffffffffffffffffffffffffffffffffff021916908373ffffffffffffffffffffffffffffffffffffffff1602179055506040820151816002015560608201518160030160006101000a81548173ffffffffffffffffffffffffffffffffffffffff021916908373ffffffffffffffffffffffffffffffffffffffff16021790555060808201518160040160006101000a81548173ffffffffffffffffffffffffffffffffffffffff021916908373ffffffffffffffffffffffffffffffffffffffff16021790555060a0820151816005015560c08201518160060160006101000a81548160ff0219169083151502179055509050508373ffffffffffffffffffffffffffffffffffffffff166323b872dd3330866040518463ffffffff1660e01b8152600401610436939291906112fe565b600060405180830381600087803b15801561045057600080fd5b505af1158015610464573d6000803e3d6000fd5b50505050828473ffffffffffffffffffffffffffffffffffffffff16827f045dfa01dcba2b36aba1d3dc4a874f4b0c5d2fbeb8d2c4b34a7d88c8d8f929d13360008760006040516104b89493929190611335565b60405180910390a4506001600081905550505050565b60026000541415610514576040517f08c379a000000000000000000000000000000000000000000000000000000000815260040161050b90611425565b60405180910390fd5b6002600081905550600060056000838152602001908152602001600020600501549050600060056000848152602001908152602001600020600201549050813414610594576040517f08c379a000000000000000000000000000000000000000000000000000000000815260040161058b90611405565b60405180910390fd5b6005600084815260200190815260200160002060030160009054906101000a900473ffffffffffffffffffffffffffffffffffffffff1673ffffffffffffffffffffffffffffffffffffffff166108fc349081150290604051600060405180830381858888f19350505050158015610610573d6000803e3d6000fd5b508373ffffffffffffffffffffffffffffffffffffffff166323b872dd3033846040518463ffffffff1660e01b815260040161064e939291906112fe565b600060405180830381600087803b15801561066857600080fd5b505af115801561067c573d6000803e3d6000fd5b50505050336005600085815260200190815260200160002060040160006101000a81548173ffffffffffffffffffffffffffffffffffffffff021916908373ffffffffffffffffffffffffffffffffffffffff16021790555060016005600085815260200190815260200160002060060160006101000a81548160ff02191690831515021790555061070e6002610fab565b600360009054906101000a900473ffffffffffffffffffffffffffffffffffffffff1673ffffffffffffffffffffffffffffffffffffffff166108fc6004549081150290604051600060405180830381858888f19350505050158015610778573d6000803e3d6000fd5b50808473ffffffffffffffffffffffffffffffffffffffff16847f9789d8d6748e7f3e6c12fe6b244e2765b7e805f6b4b65a2474cad0ca8e78840833866040516107c392919061137a565b60405180910390a4505060016000819055505050565b60606107e560006107ea565b905090565b606060006107f86001610fc1565b905060006108066002610fc1565b90506000818361081691906114aa565b9050600080600280811115610854577f4e487b7100000000000000000000000000000000000000000000000000000000600052602160045260246000fd5b87600281111561088d577f4e487b7100000000000000000000000000000000000000000000000000000000600052602160045260246000fd5b141561089b57829150610a9b565b6000600190505b858111610a9957600060028111156108e3577f4e487b7100000000000000000000000000000000000000000000000000000000600052602160045260246000fd5b88600281111561091c577f4e487b7100000000000000000000000000000000000000000000000000000000600052602160045260246000fd5b14801561098a57503373ffffffffffffffffffffffffffffffffffffffff166005600083815260200190815260200160002060040160009054906101000a900473ffffffffffffffffffffffffffffffffffffffff1673ffffffffffffffffffffffffffffffffffffffff16145b80610a725750600160028111156109ca577f4e487b7100000000000000000000000000000000000000000000000000000000600052602160045260246000fd5b886002811115610a03577f4e487b7100000000000000000000000000000000000000000000000000000000600052602160045260246000fd5b148015610a7157503373ffffffffffffffffffffffffffffffffffffffff166005600083815260200190815260200160002060030160009054906101000a900473ffffffffffffffffffffffffffffffffffffffff1673ffffffffffffffffffffffffffffffffffffffff16145b5b15610a86578280610a8290611538565b9350505b8080610a9190611538565b9150506108a2565b505b60008267ffffffffffffffff811115610add577f4e487b7100000000000000000000000000000000000000000000000000000000600052604160045260246000fd5b604051908082528060200260200182016040528015610b1657816020015b610b03610fcf565b815260200190600190039081610afb5790505b5090506000600190505b868111610f9c57600280811115610b60577f4e487b7100000000000000000000000000000000000000000000000000000000600052602160045260246000fd5b896002811115610b99577f4e487b7100000000000000000000000000000000000000000000000000000000600052602160045260246000fd5b148015610c085750600073ffffffffffffffffffffffffffffffffffffffff166005600083815260200190815260200160002060040160009054906101000a900473ffffffffffffffffffffffffffffffffffffffff1673ffffffffffffffffffffffffffffffffffffffff16145b80610cf0575060006002811115610c48577f4e487b7100000000000000000000000000000000000000000000000000000000600052602160045260246000fd5b896002811115610c81577f4e487b7100000000000000000000000000000000000000000000000000000000600052602160045260246000fd5b148015610cef57503373ffffffffffffffffffffffffffffffffffffffff166005600083815260200190815260200160002060040160009054906101000a900473ffffffffffffffffffffffffffffffffffffffff1673ffffffffffffffffffffffffffffffffffffffff16145b5b80610dd8575060016002811115610d30577f4e487b7100000000000000000000000000000000000000000000000000000000600052602160045260246000fd5b896002811115610d69577f4e487b7100000000000000000000000000000000000000000000000000000000600052602160045260246000fd5b148015610dd757503373ffffffffffffffffffffffffffffffffffffffff166005600083815260200190815260200160002060030160009054906101000a900473ffffffffffffffffffffffffffffffffffffffff1673ffffffffffffffffffffffffffffffffffffffff16145b5b15610f8957600560008281526020019081526020016000206040518060e0016040529081600082015481526020016001820160009054906101000a900473ffffffffffffffffffffffffffffffffffffffff1673ffffffffffffffffffffffffffffffffffffffff1673ffffffffffffffffffffffffffffffffffffffff168152602001600282015481526020016003820160009054906101000a900473ffffffffffffffffffffffffffffffffffffffff1673ffffffffffffffffffffffffffffffffffffffff1673ffffffffffffffffffffffffffffffffffffffff1681526020016004820160009054906101000a900473ffffffffffffffffffffffffffffffffffffffff1673ffffffffffffffffffffffffffffffffffffffff1673ffffffffffffffffffffffffffffffffffffffff168152602001600582015481526020016006820160009054906101000a900460ff161515151581525050828481518110610f6f577f4e487b7100000000000000000000000000000000000000000000000000000000600052603260045260246000fd5b60200260200101819052508280610f8590611538565b9350505b8080610f9490611538565b915050610b20565b50809650505050505050919050565b6001816000016000828254019250508190555050565b600081600001549050919050565b6040518060e0016040528060008152602001600073ffffffffffffffffffffffffffffffffffffffff16815260200160008152602001600073ffffffffffffffffffffffffffffffffffffffff168152602001600073ffffffffffffffffffffffffffffffffffffffff168152602001600081526020016000151581525090565b60008135905061105f816116c6565b92915050565b600081359050611074816116dd565b92915050565b6000806040838503121561108d57600080fd5b600061109b85828601611050565b92505060206110ac85828601611065565b9150509250929050565b6000806000606084860312156110cb57600080fd5b60006110d986828701611050565b93505060206110ea86828701611065565b92505060406110fb86828701611065565b9150509250925092565b60006111118383611252565b60e08301905092915050565b611126816114f0565b82525050565b611135816114de565b82525050565b611144816114de565b82525050565b600061115582611470565b61115f8185611488565b935061116a83611460565b8060005b8381101561119b5781516111828882611105565b975061118d8361147b565b92505060018101905061116e565b5085935050505092915050565b6111b181611502565b82525050565b6111c081611502565b82525050565b60006111d3602783611499565b91506111de826115b0565b604082019050919050565b60006111f6602183611499565b9150611201826115ff565b604082019050919050565b6000611219604083611499565b91506112248261164e565b604082019050919050565b600061123c601f83611499565b91506112478261169d565b602082019050919050565b60e08201600082015161126860008501826112e0565b50602082015161127b602085018261112c565b50604082015161128e60408501826112e0565b5060608201516112a1606085018261111d565b5060808201516112b4608085018261111d565b5060a08201516112c760a08501826112e0565b5060c08201516112da60c08501826111a8565b50505050565b6112e98161152e565b82525050565b6112f88161152e565b82525050565b6000606082019050611313600083018661113b565b611320602083018561113b565b61132d60408301846112ef565b949350505050565b600060808201905061134a600083018761113b565b611357602083018661113b565b61136460408301856112ef565b61137160608301846111b7565b95945050505050565b600060408201905061138f600083018561113b565b61139c60208301846112ef565b9392505050565b600060208201905081810360008301526113bd818461114a565b905092915050565b600060208201905081810360008301526113de816111c6565b9050919050565b600060208201905081810360008301526113fe816111e9565b9050919050565b6000602082019050818103600083015261141e8161120c565b9050919050565b6000602082019050818103600083015261143e8161122f565b9050919050565b600060208201905061145a60008301846112ef565b92915050565b6000819050602082019050919050565b600081519050919050565b6000602082019050919050565b600082825260208201905092915050565b600082825260208201905092915050565b60006114b58261152e565b91506114c08361152e565b9250828210156114d3576114d2611581565b5b828203905092915050565b60006114e98261150e565b9050919050565b60006114fb8261150e565b9050919050565b60008115159050919050565b600073ffffffffffffffffffffffffffffffffffffffff82169050919050565b6000819050919050565b60006115438261152e565b91507fffffffffffffffffffffffffffffffffffffffffffffffffffffffffffffffff82141561157657611575611581565b5b600182019050919050565b7f4e487b7100000000000000000000000000000000000000000000000000000000600052601160045260246000fd5b7f74782076616c7565206d75737420626520657175616c20746f206c697374696e60008201527f6720707269636500000000000000000000000000000000000000000000000000602082015250565b7f73656c6c207072696365206d757374206265206174206c65617374203120776560008201527f6900000000000000000000000000000000000000000000000000000000000000602082015250565b7f706c65617365207375626d6974207468652061736b696e67207072696365206960008201527f6e206f7264657220746f20636f6d706c65746520746865207075726368617365602082015250565b7f5265656e7472616e637947756172643a207265656e7472616e742063616c6c00600082015250565b6116cf816114de565b81146116da57600080fd5b50565b6116e68161152e565b81146116f157600080fd5b5056fea26469706673582212205a952c8b641a3b1b145fc41adfc212630f369efd44a07c778fbe272c2d81cfb964736f6c63430008040033",
  "linkReferences": {},
  "deployedLinkReferences": {}
}